{
  "transactions": [
    {
      "hash": "0x2efc4eb03a06418b4543b14470eca2c107dc9963279699cf70b84fd249d3ee42",
      "transactionType": "CALL",
      "contractName": null,
      "contractAddress": "0x2cb1247af8313e36fa6ee071b1ec815d5d4ce904",
      "function": "setAllowedSwapTarget(address,bool)",
      "arguments": [
        "0x0000000000001fF3684f28c67538d4D072C22734",
        "true"
      ],
      "transaction": {
        "from": "0xf3c0095a26c0ae75aa757fab74a740b31228f6f4",
        "to": "0x2cb1247af8313e36fa6ee071b1ec815d5d4ce904",
        "gas": "0x1b714",
        "value": "0x0",
        "input": "0x541537c10000000000000000000000000000000000001ff3684f28c67538d4d072c227340000000000000000000000000000000000000000000000000000000000000001",
        "nonce": "0x66",
        "chainId": "0x8f"
      },
      "additionalContracts": [],
      "isFixedGasLimit": false
    }
  ],
  "receipts": [
    {
      "status": "0x1",
      "cumulativeGasUsed": "0x3cc5c4",
      "logs": [
        {
          "address": "0x2cb1247af8313e36fa6ee071b1ec815d5d4ce904",
          "topics": [
            "0x52187c41547927b6e1bcf48e821c5fd0c6b9918398fd10d770e5b9580b44c069",
            "0x0000000000000000000000000000000000001ff3684f28c67538d4d072c22734"
          ],
          "data": "0x0000000000000000000000000000000000000000000000000000000000000001",
          "blockHash": "0x3950d382e23ced2efccaa74b6c3b32bcc3b7ffa6aca89578c7c75953f781db3f",
          "blockNumber": "0x3d260e4",
          "blockTimestamp": "0x69c61f43",
          "transactionHash": "0x2efc4eb03a06418b4543b14470eca2c107dc9963279699cf70b84fd249d3ee42",
          "transactionIndex": "0x4",
          "logIndex": "0x1c",
          "removed": false
        }
      ],
      "logsBloom": "0x00000000000010000000000000000000000000000000000000000000000002000000000000000000000000000000000000000000000000000000000000000000000000000000000000000000000000000000000000000000000000000000000000000000000000410000000008000000000000000000000000000000000000000000000000000000000000000000000000000000000000001000000000000000000000000000000000000000000000000000000000000000000000000000000000000008000000000000000000000000000000000000000000000000002000000000000000000000000000200000000000000000000000000000000000000000",
      "type": "0x2",
      "transactionHash": "0x2efc4eb03a06418b4543b14470eca2c107dc9963279699cf70b84fd249d3ee42",
      "transactionIndex": "0x4",
      "blockHash": "0x3950d382e23ced2efccaa74b6c3b32bcc3b7ffa6aca89578c7c75953f781db3f",
      "blockNumber": "0x3d260e4",
      "gasUsed": "0x1b714",
      "effectiveGasPrice": "0x17fb474600",
      "from": "0xf3c0095a26c0ae75aa757fab74a740b31228f6f4",
      "to": "0x2cb1247af8313e36fa6ee071b1ec815d5d4ce904",
      "contractAddress": null
    }
  ],
  "libraries": [],
  "pending": [],
  "returns": {},
  "timestamp": 1774591813115,
  "chain": 143,
  "commit": "971cabe"
}