{
  "transactions": [
    {
      "hash": "0x1d0c0f300d2f39415a363a50a812d2bba7edbf6869c94d6c9b3d5acc0345790a",
      "transactionType": "CALL",
      "contractName": null,
      "contractAddress": "0x009b03c9dcc4b54022188207ca17ff3303d6055f",
      "function": "setCompanyPostCapFeeBps(uint256)",
      "arguments": [
        "500"
      ],
      "transaction": {
        "from": "0xf3c0095a26c0ae75aa757fab74a740b31228f6f4",
        "to": "0x009b03c9dcc4b54022188207ca17ff3303d6055f",
        "gas": "0xcc40",
        "value": "0x0",
        "input": "0x8378590b00000000000000000000000000000000000000000000000000000000000001f4",
        "nonce": "0x3d",
        "chainId": "0xaa36a7"
      },
      "additionalContracts": [],
      "isFixedGasLimit": false
    }
  ],
  "receipts": [
    {
      "status": "0x1",
      "cumulativeGasUsed": "0x6f12e5",
      "logs": [
        {
          "address": "0x009b03c9dcc4b54022188207ca17ff3303d6055f",
          "topics": [
            "0xbd20987eb41f618005349ee42959df6dc75af59f53e431c598616b9b84e9c133"
          ],
          "data": "0x000000000000000000000000000000000000000000000000000000000000003200000000000000000000000000000000000000000000000000000000000001f4",
          "blockHash": "0x9b03f0efb2f90743fdaf9965eeabc5662da516aa7cef4e5f0f3462e59dd40afd",
          "blockNumber": "0x9fdba0",
          "blockTimestamp": "0x69bbda84",
          "transactionHash": "0x1d0c0f300d2f39415a363a50a812d2bba7edbf6869c94d6c9b3d5acc0345790a",
          "transactionIndex": "0x4b",
          "logIndex": "0x65",
          "removed": false
        }
      ],
      "logsBloom": "0x00000000000000000000000000000000000000000000000000000000000000000000000000000000000000000000000000000000000000000000000000000000000000000000000000000000000000000000000000000000000000000000000000000000000000000000000000000000000000000000000000000000000000080000000000000800000000000000000000000000000080000000000000000000000000000000000000000000000000000000100040000000000000000000000000000000000000000000000000000000000000000000000000000000000000000000000000000000000000000000000000000000000000000000000040000000",
      "type": "0x2",
      "transactionHash": "0x1d0c0f300d2f39415a363a50a812d2bba7edbf6869c94d6c9b3d5acc0345790a",
      "transactionIndex": "0x4b",
      "blockHash": "0x9b03f0efb2f90743fdaf9965eeabc5662da516aa7cef4e5f0f3462e59dd40afd",
      "blockNumber": "0x9fdba0",
      "gasUsed": "0x8ba9",
      "effectiveGasPrice": "0xf424b",
      "from": "0xf3c0095a26c0ae75aa757fab74a740b31228f6f4",
      "to": "0x009b03c9dcc4b54022188207ca17ff3303d6055f",
      "contractAddress": null
    }
  ],
  "libraries": [],
  "pending": [],
  "returns": {},
  "timestamp": 1773918853186,
  "chain": 11155111,
  "commit": "29d7a2f"
}