{
  "transactions": [
    {
      "hash": "0xc1225758b4753a24063c7784eb28f89ba65a4a0b1d25644fe7750c4671de575b",
      "transactionType": "CALL",
      "contractName": null,
      "contractAddress": "0x009b03c9dcc4b54022188207ca17ff3303d6055f",
      "function": "setOperationsFeeBps(uint256)",
      "arguments": [
        "50"
      ],
      "transaction": {
        "from": "0xf3c0095a26c0ae75aa757fab74a740b31228f6f4",
        "to": "0x009b03c9dcc4b54022188207ca17ff3303d6055f",
        "gas": "0xbff5",
        "value": "0x0",
        "input": "0xe4caccaa0000000000000000000000000000000000000000000000000000000000000032",
        "nonce": "0x3a",
        "chainId": "0xaa36a7"
      },
      "additionalContracts": [],
      "isFixedGasLimit": false
    }
  ],
  "receipts": [
    {
      "status": "0x1",
      "cumulativeGasUsed": "0x101b805",
      "logs": [
        {
          "address": "0x009b03c9dcc4b54022188207ca17ff3303d6055f",
          "topics": [
            "0x8dc3e106b99ce5c78970c938c2836636b5b7e63b62da7e8af692c8e4a85ed5ad"
          ],
          "data": "0x00000000000000000000000000000000000000000000000000000000000000320000000000000000000000000000000000000000000000000000000000000032",
          "blockHash": "0xbd818c8379668bdf630e3e0680291d7635243000f14d4c527003b4649459fa2c",
          "blockNumber": "0x9fdb45",
          "blockTimestamp": "0x69bbd634",
          "transactionHash": "0xc1225758b4753a24063c7784eb28f89ba65a4a0b1d25644fe7750c4671de575b",
          "transactionIndex": "0x65",
          "logIndex": "0x106",
          "removed": false
        }
      ],
      "logsBloom": "0x00000000000000000000000000000000000000000000000000000000000000000000000000000000000000000000000000000000000000000000000000000000000000000000000000000011000100000000000000000000000000000000000000000000000000000000000000000000000000000000000000000000000000080000000000000800000000000000000000000000000000000000000000000000000000000000000000000000000000000000100000000000000000000000000000000000000000000000000000000000000000000000000000000000000000000000000000000000000000000000000000000000000000000000000000000000",
      "type": "0x2",
      "transactionHash": "0xc1225758b4753a24063c7784eb28f89ba65a4a0b1d25644fe7750c4671de575b",
      "transactionIndex": "0x65",
      "blockHash": "0xbd818c8379668bdf630e3e0680291d7635243000f14d4c527003b4649459fa2c",
      "blockNumber": "0x9fdb45",
      "gasUsed": "0x8341",
      "effectiveGasPrice": "0xf424b",
      "from": "0xf3c0095a26c0ae75aa757fab74a740b31228f6f4",
      "to": "0x009b03c9dcc4b54022188207ca17ff3303d6055f",
      "contractAddress": null
    }
  ],
  "libraries": [],
  "pending": [],
  "returns": {},
  "timestamp": 1773917749655,
  "chain": 11155111,
  "commit": "29d7a2f"
}