{
  "transactions": [
    {
      "hash": "0x2c0bc8f10e42aab46d91fdf453b210980cddae17c4d7f14e9953ffde7889a8d0",
      "transactionType": "CALL",
      "contractName": null,
      "contractAddress": "0x009b03c9dcc4b54022188207ca17ff3303d6055f",
      "function": "setHoldFees(bool)",
      "arguments": [
        "true"
      ],
      "transaction": {
        "from": "0xf3c0095a26c0ae75aa757fab74a740b31228f6f4",
        "to": "0x009b03c9dcc4b54022188207ca17ff3303d6055f",
        "gas": "0x119fa",
        "value": "0x0",
        "input": "0x563754160000000000000000000000000000000000000000000000000000000000000001",
        "nonce": "0x1f",
        "chainId": "0xaa36a7"
      },
      "additionalContracts": [],
      "isFixedGasLimit": false
    }
  ],
  "receipts": [
    {
      "status": "0x1",
      "cumulativeGasUsed": "0x16f906a",
      "logs": [
        {
          "address": "0x009b03c9dcc4b54022188207ca17ff3303d6055f",
          "topics": [
            "0xe26abbca2a1cfa4f2a036e3275b9d450c1be684e7519af222c40fae6749a0d13"
          ],
          "data": "0x00000000000000000000000000000000000000000000000000000000000000000000000000000000000000000000000000000000000000000000000000000001",
          "blockHash": "0x08d52aed3322f62fe25fc6408e4e2f1b2c68b4c1826b4710db8a833b45c2c888",
          "blockNumber": "0x9f1536",
          "blockTimestamp": "0x69b121a8",
          "transactionHash": "0x2c0bc8f10e42aab46d91fdf453b210980cddae17c4d7f14e9953ffde7889a8d0",
          "transactionIndex": "0x90",
          "logIndex": "0x125",
          "removed": false
        }
      ],
      "logsBloom": "0x00000000000000000000000000000000000000000000000000000000000000000000000000000000000000000000000000000000000000000000000000000000000000000000000000000000000000000000000000000000000000000000000000000000000010000000000000000000000000000000000000000000000000080000000000000800000000000000000000000000000000000000000000000000000000000000000000000000000000000000100004000000000000000000000800000000000000000000000000000000000000000000000000000000000000000000000000000000000000000000000000000000000000000000000000000000",
      "type": "0x2",
      "transactionHash": "0x2c0bc8f10e42aab46d91fdf453b210980cddae17c4d7f14e9953ffde7889a8d0",
      "transactionIndex": "0x90",
      "blockHash": "0x08d52aed3322f62fe25fc6408e4e2f1b2c68b4c1826b4710db8a833b45c2c888",
      "blockNumber": "0x9f1536",
      "gasUsed": "0xcc26",
      "effectiveGasPrice": "0xf424b",
      "from": "0xf3c0095a26c0ae75aa757fab74a740b31228f6f4",
      "to": "0x009b03c9dcc4b54022188207ca17ff3303d6055f",
      "contractAddress": null
    }
  ],
  "libraries": [],
  "pending": [],
  "returns": {},
  "timestamp": 1773216169823,
  "chain": 11155111,
  "commit": "c7c953e"
}