{
  "transactions": [
    {
      "hash": "0x566ae48964a62ad3f474602965b4e0d482b8b4138ec86af60230277087dfa403",
      "transactionType": "CALL",
      "contractName": null,
      "contractAddress": "0x009b03c9dcc4b54022188207ca17ff3303d6055f",
      "function": "setCompanyFeeClaimer(address)",
      "arguments": [
        "0x4C311F39764fa2dC7B5B590dc7641117978eFA90"
      ],
      "transaction": {
        "from": "0xf3c0095a26c0ae75aa757fab74a740b31228f6f4",
        "to": "0x009b03c9dcc4b54022188207ca17ff3303d6055f",
        "gas": "0x11b7c",
        "value": "0x0",
        "input": "0x3387c8c60000000000000000000000004c311f39764fa2dc7b5b590dc7641117978efa90",
        "nonce": "0x34",
        "chainId": "0xaa36a7"
      },
      "additionalContracts": [],
      "isFixedGasLimit": false
    }
  ],
  "receipts": [
    {
      "status": "0x1",
      "cumulativeGasUsed": "0x5c1370",
      "logs": [
        {
          "address": "0x009b03c9dcc4b54022188207ca17ff3303d6055f",
          "topics": [
            "0xbb7b710af32ccd160f276340fee737d0c33a03418d5cd56f6189818a12aa0f93"
          ],
          "data": "0x00000000000000000000000000000000000000000000000000000000000000000000000000000000000000004c311f39764fa2dc7b5b590dc7641117978efa90",
          "blockHash": "0x5dee4b21af6fb30009d34d992c2d220d7ddabc8eb4bcca4ee9b5d9c5ed1bfd25",
          "blockNumber": "0x9fdad3",
          "blockTimestamp": "0x69bbd088",
          "transactionHash": "0x566ae48964a62ad3f474602965b4e0d482b8b4138ec86af60230277087dfa403",
          "transactionIndex": "0x3f",
          "logIndex": "0x94",
          "removed": false
        }
      ],
      "logsBloom": "0x00000000000000000000000000000000000000000000000000000000000000000000000000000000000000000000000000000000000000000000000000000000000000000000000000000000010000000000000000000000000000000000000000000000000000000000000000000000000000000000000000000000000000080000000000000800000000000000000000000000000000000010000000000000000000000000000000000000000000000800100000000000000000000000000000000000000000000000000000000000000000000000000000000000000000000000000000000000000000000000000000000000000000000000000000000000",
      "type": "0x2",
      "transactionHash": "0x566ae48964a62ad3f474602965b4e0d482b8b4138ec86af60230277087dfa403",
      "transactionIndex": "0x3f",
      "blockHash": "0x5dee4b21af6fb30009d34d992c2d220d7ddabc8eb4bcca4ee9b5d9c5ed1bfd25",
      "blockNumber": "0x9fdad3",
      "gasUsed": "0xcd3e",
      "effectiveGasPrice": "0xf424a",
      "from": "0xf3c0095a26c0ae75aa757fab74a740b31228f6f4",
      "to": "0x009b03c9dcc4b54022188207ca17ff3303d6055f",
      "contractAddress": null
    }
  ],
  "libraries": [],
  "pending": [],
  "returns": {},
  "timestamp": 1773916296801,
  "chain": 11155111,
  "commit": "29d7a2f"
}