{
  "transactions": [
    {
      "hash": "0x15a3ee97402cdad7d6dbbeeda8d5472bb969f18b2e9389de4455ec27d7d8f2be",
      "transactionType": "CALL",
      "contractName": null,
      "contractAddress": "0x009b03c9dcc4b54022188207ca17ff3303d6055f",
      "function": "setCompanyPostCapFeeBps(uint256)",
      "arguments": [
        "50"
      ],
      "transaction": {
        "from": "0xf3c0095a26c0ae75aa757fab74a740b31228f6f4",
        "to": "0x009b03c9dcc4b54022188207ca17ff3303d6055f",
        "gas": "0x12ddf",
        "value": "0x0",
        "input": "0x8378590b0000000000000000000000000000000000000000000000000000000000000032",
        "nonce": "0x39",
        "chainId": "0xaa36a7"
      },
      "additionalContracts": [],
      "isFixedGasLimit": false
    }
  ],
  "receipts": [
    {
      "status": "0x1",
      "cumulativeGasUsed": "0x1469bfc",
      "logs": [
        {
          "address": "0x009b03c9dcc4b54022188207ca17ff3303d6055f",
          "topics": [
            "0xbd20987eb41f618005349ee42959df6dc75af59f53e431c598616b9b84e9c133"
          ],
          "data": "0x00000000000000000000000000000000000000000000000000000000000000000000000000000000000000000000000000000000000000000000000000000032",
          "blockHash": "0x85f836dfd1d90418e79e3a04a20562beb8fd00e25c55a1eea416a6fb150668cd",
          "blockNumber": "0x9fdb37",
          "blockTimestamp": "0x69bbd580",
          "transactionHash": "0x15a3ee97402cdad7d6dbbeeda8d5472bb969f18b2e9389de4455ec27d7d8f2be",
          "transactionIndex": "0x5d",
          "logIndex": "0xdf",
          "removed": false
        }
      ],
      "logsBloom": "0x00000000000000000000000000000000000000000000000000000000000000000000000000000000000000000000000000000000000000000000000000000000000000000000000000000000000000000000000000000000000000000000000000000000000000000000000000000000000000000000000000000000000000080000000000000800000000000000000000000000000080000000000000000000000000000000000000000000000000000000100040000000000000000000000000000000000000000000000000000000000000000000000000000000000000000000000000000000000000000000000000000000000000000000000040000000",
      "type": "0x2",
      "transactionHash": "0x15a3ee97402cdad7d6dbbeeda8d5472bb969f18b2e9389de4455ec27d7d8f2be",
      "transactionIndex": "0x5d",
      "blockHash": "0x85f836dfd1d90418e79e3a04a20562beb8fd00e25c55a1eea416a6fb150668cd",
      "blockNumber": "0x9fdb37",
      "gasUsed": "0xce69",
      "effectiveGasPrice": "0xf424b",
      "from": "0xf3c0095a26c0ae75aa757fab74a740b31228f6f4",
      "to": "0x009b03c9dcc4b54022188207ca17ff3303d6055f",
      "contractAddress": null
    }
  ],
  "libraries": [],
  "pending": [],
  "returns": {},
  "timestamp": 1773917569150,
  "chain": 11155111,
  "commit": "29d7a2f"
}