{
  "transactions": [
    {
      "hash": "0x169dcf0522b0f3e5f21d5a4ef952e0aed2125dec88363ba325acb4b5fc963384",
      "transactionType": "CALL",
      "contractName": null,
      "contractAddress": "0x009b03c9dcc4b54022188207ca17ff3303d6055f",
      "function": "setOperationsFeeBps(uint256)",
      "arguments": [
        "50"
      ],
      "transaction": {
        "from": "0xf3c0095a26c0ae75aa757fab74a740b31228f6f4",
        "to": "0x009b03c9dcc4b54022188207ca17ff3303d6055f",
        "gas": "0x120a9",
        "value": "0x0",
        "input": "0xe4caccaa0000000000000000000000000000000000000000000000000000000000000032",
        "nonce": "0x37",
        "chainId": "0xaa36a7"
      },
      "additionalContracts": [],
      "isFixedGasLimit": false
    }
  ],
  "receipts": [
    {
      "status": "0x1",
      "cumulativeGasUsed": "0x762771",
      "logs": [
        {
          "address": "0x009b03c9dcc4b54022188207ca17ff3303d6055f",
          "topics": [
            "0x8dc3e106b99ce5c78970c938c2836636b5b7e63b62da7e8af692c8e4a85ed5ad"
          ],
          "data": "0x00000000000000000000000000000000000000000000000000000000000000000000000000000000000000000000000000000000000000000000000000000032",
          "blockHash": "0x713762dcb8e664fc3b48ca654d6303e1f03a05f81771d919adc85cb5eaf7fa94",
          "blockNumber": "0x9fdb30",
          "blockTimestamp": "0x69bbd52c",
          "transactionHash": "0x169dcf0522b0f3e5f21d5a4ef952e0aed2125dec88363ba325acb4b5fc963384",
          "transactionIndex": "0x4e",
          "logIndex": "0x69",
          "removed": false
        }
      ],
      "logsBloom": "0x00000000000000000000000000000000000000000000000000000000000000000000000000000000000000000000000000000000000000000000000000000000000000000000000000000011000100000000000000000000000000000000000000000000000000000000000000000000000000000000000000000000000000080000000000000800000000000000000000000000000000000000000000000000000000000000000000000000000000000000100000000000000000000000000000000000000000000000000000000000000000000000000000000000000000000000000000000000000000000000000000000000000000000000000000000000",
      "type": "0x2",
      "transactionHash": "0x169dcf0522b0f3e5f21d5a4ef952e0aed2125dec88363ba325acb4b5fc963384",
      "transactionIndex": "0x4e",
      "blockHash": "0x713762dcb8e664fc3b48ca654d6303e1f03a05f81771d919adc85cb5eaf7fa94",
      "blockNumber": "0x9fdb30",
      "gasUsed": "0xd0fd",
      "effectiveGasPrice": "0xf424b",
      "from": "0xf3c0095a26c0ae75aa757fab74a740b31228f6f4",
      "to": "0x009b03c9dcc4b54022188207ca17ff3303d6055f",
      "contractAddress": null
    }
  ],
  "libraries": [],
  "pending": [],
  "returns": {},
  "timestamp": 1773917485792,
  "chain": 11155111,
  "commit": "29d7a2f"
}