{
  "transactions": [
    {
      "hash": "0x47ba3d0b544a57322a326bfef54943b5f97159469c4c3b0a1f5d43febab508d2",
      "transactionType": "CALL",
      "contractName": null,
      "contractAddress": "0x0e0bcf47459958625b49d4a6dad03301a6480bb5",
      "function": "setAllowedSwapTarget(address,bool)",
      "arguments": [
        "0x3bFA4769FB09eefC5a80d6E87c3B9C650f7Ae48E",
        "true"
      ],
      "transaction": {
        "from": "0xf3c0095a26c0ae75aa757fab74a740b31228f6f4",
        "to": "0x0e0bcf47459958625b49d4a6dad03301a6480bb5",
        "gas": "0x11dc9",
        "value": "0x0",
        "input": "0x541537c10000000000000000000000003bfa4769fb09eefc5a80d6e87c3b9c650f7ae48e0000000000000000000000000000000000000000000000000000000000000001",
        "nonce": "0x4c",
        "chainId": "0xaa36a7"
      },
      "additionalContracts": [],
      "isFixedGasLimit": false
    }
  ],
  "receipts": [
    {
      "status": "0x1",
      "cumulativeGasUsed": "0x128a432",
      "logs": [
        {
          "address": "0x0e0bcf47459958625b49d4a6dad03301a6480bb5",
          "topics": [
            "0x52187c41547927b6e1bcf48e821c5fd0c6b9918398fd10d770e5b9580b44c069",
            "0x0000000000000000000000003bfa4769fb09eefc5a80d6e87c3b9c650f7ae48e"
          ],
          "data": "0x0000000000000000000000000000000000000000000000000000000000000001",
          "blockHash": "0x74bfdf546cce52a43234e06e7787ec64c7bc2c02213fe47d7fa7ecd47d7247d4",
          "blockNumber": "0xa02cc1",
          "blockTimestamp": "0x69bfc5d4",
          "transactionHash": "0x47ba3d0b544a57322a326bfef54943b5f97159469c4c3b0a1f5d43febab508d2",
          "transactionIndex": "0x78",
          "logIndex": "0x23a",
          "removed": false
        }
      ],
      "logsBloom": "0x00000000000000000000000000004000000000000000040000000000000002000000000000000000000000000000000000000000000000000000000000000000000000000000000000000000000000000000000000000000000000000000000000000000000400010000000000000000000000000000000000000000000000000000000000000000000000000000000000000000000000000000000000000000000000000000000000000000000000000000000000000000000000000000000000000000000000000000000000000000000000000000000000001000000000000000000000000000000000200000000000000000000000400000200000000000",
      "type": "0x2",
      "transactionHash": "0x47ba3d0b544a57322a326bfef54943b5f97159469c4c3b0a1f5d43febab508d2",
      "transactionIndex": "0x78",
      "blockHash": "0x74bfdf546cce52a43234e06e7787ec64c7bc2c02213fe47d7fa7ecd47d7247d4",
      "blockNumber": "0xa02cc1",
      "gasUsed": "0xcee8",
      "effectiveGasPrice": "0x1010e7",
      "from": "0xf3c0095a26c0ae75aa757fab74a740b31228f6f4",
      "to": "0x0e0bcf47459958625b49d4a6dad03301a6480bb5",
      "contractAddress": null
    }
  ],
  "libraries": [],
  "pending": [],
  "returns": {},
  "timestamp": 1774175700963,
  "chain": 11155111,
  "commit": "5464437"
}