{
  "transactions": [
    {
      "hash": "0x6582c6a5097e489aecd62482d13c2dc5b35ac77bf4b83aa86a0a49aaea8a146d",
      "transactionType": "CALL",
      "contractName": null,
      "contractAddress": "0x0e0bcf47459958625b49d4a6dad03301a6480bb5",
      "function": "setTokenApproval(address,address,uint256)",
      "arguments": [
        "0xfFf9976782d46CC05630D1f6eBAb18b2324d6B14",
        "0x3bFA4769FB09eefC5a80d6E87c3B9C650f7Ae48E",
        "1000000000000000000"
      ],
      "transaction": {
        "from": "0xf3c0095a26c0ae75aa757fab74a740b31228f6f4",
        "to": "0x0e0bcf47459958625b49d4a6dad03301a6480bb5",
        "gas": "0x16b5a",
        "value": "0x0",
        "input": "0x175fadbe000000000000000000000000fff9976782d46cc05630d1f6ebab18b2324d6b140000000000000000000000003bfa4769fb09eefc5a80d6e87c3b9c650f7ae48e0000000000000000000000000000000000000000000000000de0b6b3a7640000",
        "nonce": "0x4d",
        "chainId": "0xaa36a7"
      },
      "additionalContracts": [],
      "isFixedGasLimit": false
    }
  ],
  "receipts": [
    {
      "status": "0x1",
      "cumulativeGasUsed": "0x1017dda",
      "logs": [
        {
          "address": "0xfff9976782d46cc05630d1f6ebab18b2324d6b14",
          "topics": [
            "0x8c5be1e5ebec7d5bd14f71427d1e84f3dd0314c0f7b2291e5b200ac8c7c3b925",
            "0x0000000000000000000000000e0bcf47459958625b49d4a6dad03301a6480bb5",
            "0x0000000000000000000000003bfa4769fb09eefc5a80d6e87c3b9c650f7ae48e"
          ],
          "data": "0x0000000000000000000000000000000000000000000000000de0b6b3a7640000",
          "blockHash": "0xc1370c5ef9615583459b48943c9fab44c0ffe4d3063ac87df29f6677ab7d90a4",
          "blockNumber": "0xa02cca",
          "blockTimestamp": "0x69bfc640",
          "transactionHash": "0x6582c6a5097e489aecd62482d13c2dc5b35ac77bf4b83aa86a0a49aaea8a146d",
          "transactionIndex": "0x76",
          "logIndex": "0x2fc",
          "removed": false
        },
        {
          "address": "0x0e0bcf47459958625b49d4a6dad03301a6480bb5",
          "topics": [
            "0x8a76be89a4a1c334406d8d7ba17376e5f2a5b621b358110dab206a8ab5585cd9",
            "0x000000000000000000000000fff9976782d46cc05630d1f6ebab18b2324d6b14",
            "0x0000000000000000000000003bfa4769fb09eefc5a80d6e87c3b9c650f7ae48e"
          ],
          "data": "0x0000000000000000000000000000000000000000000000000de0b6b3a7640000",
          "blockHash": "0xc1370c5ef9615583459b48943c9fab44c0ffe4d3063ac87df29f6677ab7d90a4",
          "blockNumber": "0xa02cca",
          "blockTimestamp": "0x69bfc640",
          "transactionHash": "0x6582c6a5097e489aecd62482d13c2dc5b35ac77bf4b83aa86a0a49aaea8a146d",
          "transactionIndex": "0x76",
          "logIndex": "0x2fd",
          "removed": false
        }
      ],
      "logsBloom": "0x00000000001000000000000000004000000000000000040000000000000000000000000000000000000000000000000000000800000000000000000000200000000000000000000000000000040000000000000000000000000000800000000000400000001400000000000000000000000000000000000000000000000000000040000000000000000000000000000000000000100000000000000000000000020020000000000000000000000000000000000000000000000000000000000000000000000000000002000001000000000000000000000000001000000000000010000000000000000000000000000000001000000000400000200000000000",
      "type": "0x2",
      "transactionHash": "0x6582c6a5097e489aecd62482d13c2dc5b35ac77bf4b83aa86a0a49aaea8a146d",
      "transactionIndex": "0x76",
      "blockHash": "0xc1370c5ef9615583459b48943c9fab44c0ffe4d3063ac87df29f6677ab7d90a4",
      "blockNumber": "0xa02cca",
      "gasUsed": "0xf873",
      "effectiveGasPrice": "0x100f07",
      "from": "0xf3c0095a26c0ae75aa757fab74a740b31228f6f4",
      "to": "0x0e0bcf47459958625b49d4a6dad03301a6480bb5",
      "contractAddress": null
    }
  ],
  "libraries": [],
  "pending": [],
  "returns": {},
  "timestamp": 1774175808683,
  "chain": 11155111,
  "commit": "5464437"
}