{
  "transactions": [
    {
      "hash": "0x87374c92f5604e3e163b3ce4dd41568c94c5fb73db636f2e7eaae978d16e8098",
      "transactionType": "CALL",
      "contractName": null,
      "contractAddress": "0x60afae2fff02cab90afa2a8fe025dcb1fc7d0f69",
      "function": "enableFeeAmounts(uint24[])",
      "arguments": [
        "[100, 500, 10000]"
      ],
      "transaction": {
        "from": "0xf3c0095a26c0ae75aa757fab74a740b31228f6f4",
        "to": "0x60afae2fff02cab90afa2a8fe025dcb1fc7d0f69",
        "gas": "0x5127e",
        "value": "0x0",
        "input": "0x73ec156600000000000000000000000000000000000000000000000000000000000000200000000000000000000000000000000000000000000000000000000000000003000000000000000000000000000000000000000000000000000000000000006400000000000000000000000000000000000000000000000000000000000001f40000000000000000000000000000000000000000000000000000000000002710",
        "nonce": "0x49",
        "chainId": "0x8f"
      },
      "additionalContracts": [],
      "isFixedGasLimit": false
    }
  ],
  "receipts": [
    {
      "status": "0x1",
      "cumulativeGasUsed": "0x7e89e8",
      "logs": [],
      "logsBloom": "0x00000000000000000000000000000000000000000000000000000000000000000000000000000000000000000000000000000000000000000000000000000000000000000000000000000000000000000000000000000000000000000000000000000000000000000000000000000000000000000000000000000000000000000000000000000000000000000000000000000000000000000000000000000000000000000000000000000000000000000000000000000000000000000000000000000000000000000000000000000000000000000000000000000000000000000000000000000000000000000000000000000000000000000000000000000000",
      "type": "0x2",
      "transactionHash": "0x87374c92f5604e3e163b3ce4dd41568c94c5fb73db636f2e7eaae978d16e8098",
      "transactionIndex": "0xb",
      "blockHash": "0x97013fdfdc3072dd0fea9d4b72a00c8b30bfee8e4fd9a73cbabc83149d28bdad",
      "blockNumber": "0x3c9bbac",
      "gasUsed": "0x5127e",
      "effectiveGasPrice": "0x17e71d52dd",
      "from": "0xf3c0095a26c0ae75aa757fab74a740b31228f6f4",
      "to": "0x60afae2fff02cab90afa2a8fe025dcb1fc7d0f69",
      "contractAddress": null
    }
  ],
  "libraries": [],
  "pending": [],
  "returns": {},
  "timestamp": 1774365060434,
  "chain": 143,
  "commit": "b1a4598"
}