{
  "transactions": [
    {
      "hash": "0x594fd66e965eafd578cbc88fd0239354237cc814fed7677d03b7fb11dbde7374",
      "transactionType": "CALL",
      "contractName": null,
      "contractAddress": "0x278703006612b2ad5597875ff6e8346d02cbf065",
      "function": "setUnbondingPeriod(uint256)",
      "arguments": [
        "60"
      ],
      "transaction": {
        "from": "0xf3c0095a26c0ae75aa757fab74a740b31228f6f4",
        "to": "0x278703006612b2ad5597875ff6e8346d02cbf065",
        "gas": "0xbbe0",
        "value": "0x0",
        "input": "0x114eaf55000000000000000000000000000000000000000000000000000000000000003c",
        "nonce": "0x77",
        "chainId": "0xaa36a7"
      },
      "additionalContracts": [],
      "isFixedGasLimit": false
    }
  ],
  "receipts": [
    {
      "status": "0x1",
      "cumulativeGasUsed": "0xb2d1fb",
      "logs": [
        {
          "address": "0x278703006612b2ad5597875ff6e8346d02cbf065",
          "topics": [
            "0x1e87d1842527009d17fe588925d65dbeda5a9a83282ca9b691d6e4a522ae716f"
          ],
          "data": "0x0000000000000000000000000000000000000000000000000000000000093a80000000000000000000000000000000000000000000000000000000000000003c",
          "blockHash": "0xfc1d25063c6ca6c86b6c8907440522a385f1d56d8f0cdf97f038595f2ae4a3e6",
          "blockNumber": "0xa216a9",
          "blockTimestamp": "0x69d783c8",
          "transactionHash": "0x594fd66e965eafd578cbc88fd0239354237cc814fed7677d03b7fb11dbde7374",
          "transactionIndex": "0x57",
          "logIndex": "0x189",
          "removed": false
        }
      ],
      "logsBloom": "0x00000000000000000000000000000000000000000000000400000000000000000000000004000000000000000000000000000000000000000000000000000000000000000000000000000000000000000000000000000000000000000000000000000000000000000000000000000000000000000000000000000000000000000000000000000000000000000000000000000000000000000000000000000000000000000200000000000000000000080000000000000000000000000000000000000000000000000000000000000000000000000000000000000000000000000000000000001000000000000000000020000000000000000000000000000000",
      "type": "0x2",
      "transactionHash": "0x594fd66e965eafd578cbc88fd0239354237cc814fed7677d03b7fb11dbde7374",
      "transactionIndex": "0x57",
      "blockHash": "0xfc1d25063c6ca6c86b6c8907440522a385f1d56d8f0cdf97f038595f2ae4a3e6",
      "blockNumber": "0xa216a9",
      "gasUsed": "0x8805",
      "effectiveGasPrice": "0xe9436e4b",
      "from": "0xf3c0095a26c0ae75aa757fab74a740b31228f6f4",
      "to": "0x278703006612b2ad5597875ff6e8346d02cbf065",
      "contractAddress": null
    }
  ],
  "libraries": [],
  "pending": [],
  "returns": {},
  "timestamp": 1775731657168,
  "chain": 11155111,
  "commit": "c6c91da"
}